{
  "contractName": "MetaCoin",
  "abi": [
    {
      "constant": true,
      "inputs": [
        {
          "name": "",
          "type": "uint256"
        }
      ],
      "name": "CAs",
      "outputs": [
        {
          "name": "",
          "type": "address"
        }
      ],
      "payable": false,
      "stateMutability": "view",
      "type": "function"
    },
    {
      "constant": true,
      "inputs": [
        {
          "name": "",
          "type": "uint256"
        }
      ],
      "name": "certusers",
      "outputs": [
        {
          "name": "username",
          "type": "string"
        },
        {
          "name": "identityId",
          "type": "string"
        },
        {
          "name": "certnumber",
          "type": "string"
        },
        {
          "name": "orgname",
          "type": "string"
        },
        {
          "name": "hashstr",
          "type": "string"
        },
        {
          "name": "useraddress",
          "type": "address"
        },
        {
          "name": "CA",
          "type": "string"
        },
        {
          "name": "CAAddress",
          "type": "address"
        },
        {
          "name": "userstate",
          "type": "uint256"
        },
        {
          "name": "readyTime",
          "type": "uint256"
        }
      ],
      "payable": false,
      "stateMutability": "view",
      "type": "function"
    },
    {
      "constant": true,
      "inputs": [],
      "name": "owner",
      "outputs": [
        {
          "name": "",
          "type": "address"
        }
      ],
      "payable": false,
      "stateMutability": "view",
      "type": "function"
    },
    {
      "constant": false,
      "inputs": [
        {
          "name": "newOwner",
          "type": "address"
        }
      ],
      "name": "transferOwnership",
      "outputs": [],
      "payable": false,
      "stateMutability": "nonpayable",
      "type": "function"
    },
    {
      "inputs": [],
      "payable": false,
      "stateMutability": "nonpayable",
      "type": "constructor"
    },
    {
      "anonymous": false,
      "inputs": [
        {
          "indexed": true,
          "name": "_from",
          "type": "address"
        },
        {
          "indexed": true,
          "name": "_to",
          "type": "address"
        },
        {
          "indexed": false,
          "name": "_value",
          "type": "uint256"
        }
      ],
      "name": "Transfer",
      "type": "event"
    },
    {
      "anonymous": false,
      "inputs": [
        {
          "indexed": true,
          "name": "previousOwner",
          "type": "address"
        },
        {
          "indexed": true,
          "name": "newOwner",
          "type": "address"
        }
      ],
      "name": "OwnershipTransferred",
      "type": "event"
    },
    {
      "constant": false,
      "inputs": [
        {
          "name": "receiver",
          "type": "address"
        },
        {
          "name": "amount",
          "type": "uint256"
        }
      ],
      "name": "sendCoin",
      "outputs": [
        {
          "name": "sufficient",
          "type": "bool"
        }
      ],
      "payable": false,
      "stateMutability": "nonpayable",
      "type": "function"
    },
    {
      "constant": true,
      "inputs": [
        {
          "name": "addr",
          "type": "address"
        }
      ],
      "name": "getBalanceInEth",
      "outputs": [
        {
          "name": "",
          "type": "uint256"
        }
      ],
      "payable": false,
      "stateMutability": "view",
      "type": "function"
    },
    {
      "constant": true,
      "inputs": [
        {
          "name": "addr",
          "type": "address"
        }
      ],
      "name": "getBalance",
      "outputs": [
        {
          "name": "",
          "type": "uint256"
        }
      ],
      "payable": false,
      "stateMutability": "view",
      "type": "function"
    },
    {
      "constant": true,
      "inputs": [],
      "name": "getCertUserFirst",
      "outputs": [
        {
          "name": "",
          "type": "string"
        }
      ],
      "payable": false,
      "stateMutability": "view",
      "type": "function"
    },
    {
      "constant": false,
      "inputs": [
        {
          "name": "CAAddress",
          "type": "address"
        }
      ],
      "name": "addCA",
      "outputs": [
        {
          "name": "CAIndex",
          "type": "uint256"
        },
        {
          "name": "error",
          "type": "bool"
        }
      ],
      "payable": true,
      "stateMutability": "payable",
      "type": "function"
    },
    {
      "constant": true,
      "inputs": [
        {
          "name": "CAAddress",
          "type": "address"
        }
      ],
      "name": "getCAByAddress",
      "outputs": [
        {
          "name": "CAIndex",
          "type": "uint256"
        }
      ],
      "payable": false,
      "stateMutability": "view",
      "type": "function"
    },
    {
      "constant": false,
      "inputs": [
        {
          "name": "CAAddress",
          "type": "address"
        }
      ],
      "name": "deleteCA",
      "outputs": [
        {
          "name": "CAIndex",
          "type": "uint256"
        }
      ],
      "payable": true,
      "stateMutability": "payable",
      "type": "function"
    },
    {
      "constant": false,
      "inputs": [
        {
          "name": "_username",
          "type": "string"
        },
        {
          "name": "_identityId",
          "type": "string"
        },
        {
          "name": "_certnumber",
          "type": "string"
        },
        {
          "name": "_orgname",
          "type": "string"
        },
        {
          "name": "_hashstr",
          "type": "string"
        },
        {
          "name": "_useraddress",
          "type": "address"
        },
        {
          "name": "_CA",
          "type": "string"
        },
        {
          "name": "_CAAddress",
          "type": "address"
        }
      ],
      "name": "createCertUser",
      "outputs": [
        {
          "name": "",
          "type": "string"
        }
      ],
      "payable": true,
      "stateMutability": "payable",
      "type": "function"
    },
    {
      "constant": true,
      "inputs": [],
      "name": "getAllCertUsers",
      "outputs": [
        {
          "name": "",
          "type": "string"
        }
      ],
      "payable": false,
      "stateMutability": "view",
      "type": "function"
    },
    {
      "constant": true,
      "inputs": [
        {
          "name": "identityId",
          "type": "string"
        },
        {
          "name": "certnumber",
          "type": "string"
        }
      ],
      "name": "verifyCertUser",
      "outputs": [
        {
          "name": "istrue",
          "type": "bool"
        }
      ],
      "payable": false,
      "stateMutability": "view",
      "type": "function"
    },
    {
      "constant": true,
      "inputs": [
        {
          "name": "identityId",
          "type": "string"
        },
        {
          "name": "certnumber",
          "type": "string"
        }
      ],
      "name": "getFirstCertUser",
      "outputs": [
        {
          "name": "username",
          "type": "string"
        },
        {
          "name": "identityId1",
          "type": "string"
        },
        {
          "name": "certnumber1",
          "type": "string"
        },
        {
          "name": "orgname",
          "type": "string"
        },
        {
          "name": "hashstr",
          "type": "string"
        },
        {
          "name": "useraddress1",
          "type": "address"
        },
        {
          "name": "CA",
          "type": "string"
        },
        {
          "name": "CAAddress",
          "type": "address"
        },
        {
          "name": "userstate",
          "type": "uint32"
        },
        {
          "name": "readyTime",
          "type": "uint32"
        }
      ],
      "payable": false,
      "stateMutability": "view",
      "type": "function"
    },
    {
      "constant": true,
      "inputs": [
        {
          "name": "identityId",
          "type": "string"
        },
        {
          "name": "certnumber",
          "type": "string"
        }
      ],
      "name": "getCertUserOrgname",
      "outputs": [
        {
          "name": "",
          "type": "string"
        }
      ],
      "payable": false,
      "stateMutability": "view",
      "type": "function"
    },
    {
      "constant": false,
      "inputs": [
        {
          "name": "identityId",
          "type": "string"
        },
        {
          "name": "certnumber",
          "type": "string"
        },
        {
          "name": "state",
          "type": "uint256"
        }
      ],
      "name": "changeCertUserState",
      "outputs": [
        {
          "name": "isChanged",
          "type": "bool"
        }
      ],
      "payable": true,
      "stateMutability": "payable",
      "type": "function"
    }
  ],
  "bytecode": "0x606060405273627306090abab3a6e1400e9345bc60c78a8bef57600160006101000a81548173ffffffffffffffffffffffffffffffffffffffff021916908373ffffffffffffffffffffffffffffffffffffffff1602179055507fffffffffffffffffffffffffffffffffffffffffffffffffffffffffffffffff600255603c60035534156200008e57600080fd5b336000806101000a81548173ffffffffffffffffffffffffffffffffffffffff021916908373ffffffffffffffffffffffffffffffffffffffff160217905550620186a0600560003273ffffffffffffffffffffffffffffffffffffffff1673ffffffffffffffffffffffffffffffffffffffff16815260200190815260200160002081905550600780548060010182816200012b9190620001a2565b91600052602060002090016000600160009054906101000a900473ffffffffffffffffffffffffffffffffffffffff16909190916101000a81548173ffffffffffffffffffffffffffffffffffffffff021916908373ffffffffffffffffffffffffffffffffffffffff16021790555050620001f9565b815481835581811511620001cc57818360005260206000209182019101620001cb9190620001d1565b5b505050565b620001f691905b80821115620001f2576000816000905550600101620001d8565b5090565b90565b612f1080620002096000396000f3006060604052600436106100f1576000357c0100000000000000000000000000000000000000000000000000000000900463ffffffff1680630c0edc27146100f65780631486e993146101215780631665537c146101605780631da64e57146101965780632d5dce67146101c25780635f9f0372146101f85780637843371c146102235780637bd703e81461026257806388e262301461029857806389093a15146102c15780638da5cb5b146102ea5780638e2e56461461031357806390b98a1114610349578063aa38517c1461037f578063f2fde38b146103b5578063f8b2cb4f146103d7578063fb80d39a1461040d575b600080fd5b61010b60046101069036906129d3565b610438565b6040516101189190612b5c565b60405180910390f35b341561012c57600080fd5b610141600461013c903690612825565b61050a565b6040516101579a99989796959493929190612b99565b60405180910390f35b341561016b57600080fd5b610180600461017b903690612a52565b610769565b60405161018d9190612b41565b60405180910390f35b6101ab60046101a69036906127c0565b6107a8565b6040516101b9929190612d40565b60405180910390f35b34156101cd57600080fd5b6101e260046101dd903690612825565b610896565b6040516101ef9190612b5c565b60405180910390f35b61020d6004610208903690612891565b610a8a565b60405161021a9190612b77565b60405180910390f35b341561022e57600080fd5b610243600461023e903690612a52565b610e20565b6040516102599a99989796959493929190612c5f565b60405180910390f35b341561026d57600080fd5b610282600461027d9036906127c0565b611253565b60405161028f9190612d25565b60405180910390f35b34156102a357600080fd5b6102ab6112e8565b6040516102b89190612b77565b60405180910390f35b34156102cc57600080fd5b6102d46113af565b6040516102e19190612b77565b60405180910390f35b34156102f557600080fd5b6102fd611430565b60405161030a9190612b41565b60405180910390f35b341561031e57600080fd5b610333600461032e9036906127c0565b611455565b6040516103409190612d25565b60405180910390f35b341561035457600080fd5b61036960046103649036906127e9565b61151f565b6040516103769190612b5c565b60405180910390f35b341561038a57600080fd5b61039f600461039a903690612825565b61167b565b6040516103ac9190612b77565b60405180910390f35b34156103c057600080fd5b6103d560046103d09036906127c0565b61179b565b005b34156103e257600080fd5b6103f760046103f29036906127c0565b6118f0565b6040516104049190612d25565b60405180910390f35b610422600461041d9036906127c0565b611939565b60405161042f9190612d25565b60405180910390f35b60008060066104478686611a8e565b81548110151561045357fe5b90600052602060002090600a020190508281600801541415151561047657600080fd5b6002816008015414156104ef573373ffffffffffffffffffffffffffffffffffffffff168160070160009054906101000a900473ffffffffffffffffffffffffffffffffffffffff1673ffffffffffffffffffffffffffffffffffffffff161415156104e157600080fd5b8281600801819055506104f9565b8281600801819055505b61050281611cb6565b509392505050565b6105126124b2565b61051a6124b2565b6105226124b2565b61052a6124b2565b6105326124b2565b600061053c6124b2565b60008060006105496124c6565b6000610553611ccc565b915061055f8e8e611a8e565b9050600254811415151561057257600080fd5b3373ffffffffffffffffffffffffffffffffffffffff16828281518110151561059757fe5b9060200190602002015160a0015173ffffffffffffffffffffffffffffffffffffffff16148061060d57503373ffffffffffffffffffffffffffffffffffffffff1682828151811015156105e757fe5b9060200190602002015160e0015173ffffffffffffffffffffffffffffffffffffffff16145b151561061857600080fd5b818181518110151561062657fe5b9060200190602002015160000151828281518110151561064257fe5b9060200190602002015160200151838381518110151561065e57fe5b9060200190602002015160400151848481518110151561067a57fe5b9060200190602002015160600151858581518110151561069657fe5b906020019060200201516080015186868151811015156106b257fe5b9060200190602002015160a0015187878151811015156106ce57fe5b9060200190602002015160c0015188888151811015156106ea57fe5b9060200190602002015160e00151898981518110151561070657fe5b9060200190602002015161010001518a8a81518110151561072357fe5b9060200190602002015161012001518999508898508797508696508595508393509b509b509b509b509b509b509b509b509b509b5050509295989b9194979a5092959850565b60078181548110151561077857fe5b90600052602060002090016000915054906101000a900473ffffffffffffffffffffffffffffffffffffffff1681565b600080600160009054906101000a900473ffffffffffffffffffffffffffffffffffffffff1673ffffffffffffffffffffffffffffffffffffffff163373ffffffffffffffffffffffffffffffffffffffff1614151561080757600080fd5b60025461081384611455565b14151561082857600254600091509150610891565b6007805480600101828161083c91906124da565b9160005260206000209001600085909190916101000a81548173ffffffffffffffffffffffffffffffffffffffff021916908373ffffffffffffffffffffffffffffffffffffffff1602179055506001915091505b915091565b600080600090505b600680549050811015610a7e5761096d6006828154811015156108bd57fe5b90600052602060002090600a02016001018054600181600116156101000203166002900480601f0160208091040260200160405190810160405280929190818152602001828054600181600116156101000203166002900480156109625780601f1061093757610100808354040283529160200191610962565b820191906000526020600020905b81548152906001019060200180831161094557829003601f168201915b5050505050856121bf565b8015610a375750610a3660068281548110151561098657fe5b90600052602060002090600a02016002018054600181600116156101000203166002900480601f016020809104026020016040519081016040528092919081815260200182805460018160011615610100020316600290048015610a2b5780601f10610a0057610100808354040283529160200191610a2b565b820191906000526020600020905b815481529060010190602001808311610a0e57829003601f168201915b5050505050846121bf565b5b8015610a6357506000600682815481101515610a4f57fe5b90600052602060002090600a020160080154145b15610a715760019150610a83565b808060010191505061089e565b600091505b5092915050565b610a926124b2565b6000806000808773ffffffffffffffffffffffffffffffffffffffff1614151515610abc57600080fd5b60008573ffffffffffffffffffffffffffffffffffffffff1614151515610ae257600080fd5b60019250600254610af286611455565b1415610b5c57606060405190810160405280602581526020017f706c656173652061646420746f20434120746f207768697465206c697374206681526020017f697273742e0000000000000000000000000000000000000000000000000000008152509350610e11565b610b668b8b611a8e565b915060025482141515610bb0576040805190810160405280601e81526020017f6164642066616c73652e207468652043657274557365722065786973747300008152509350610e11565b60068054806001018281610bc49190612506565b91600052602060002090600a02016000610140604051908101604052806040805190810160405280600381526020017f616161000000000000000000000000000000000000000000000000000000000081525081526020018f81526020018e81526020018d81526020018c81526020018b73ffffffffffffffffffffffffffffffffffffffff1681526020018a81526020018973ffffffffffffffffffffffffffffffffffffffff168152602001600081526020014281525090919091506000820151816000019080519060200190610c9e929190612538565b506020820151816001019080519060200190610cbb929190612538565b506040820151816002019080519060200190610cd8929190612538565b506060820151816003019080519060200190610cf5929190612538565b506080820151816004019080519060200190610d12929190612538565b5060a08201518160050160006101000a81548173ffffffffffffffffffffffffffffffffffffffff021916908373ffffffffffffffffffffffffffffffffffffffff16021790555060c0820151816006019080519060200190610d76929190612538565b5060e08201518160070160006101000a81548173ffffffffffffffffffffffffffffffffffffffff021916908373ffffffffffffffffffffffffffffffffffffffff16021790555061010082015181600801556101208201518160090155505090506040805190810160405280600b81526020017f616464207375636365737300000000000000000000000000000000000000000081525093505b50505098975050505050505050565b600681815481101515610e2f57fe5b90600052602060002090600a0201600091509050806000018054600181600116156101000203166002900480601f016020809104026020016040519081016040528092919081815260200182805460018160011615610100020316600290048015610edb5780601f10610eb057610100808354040283529160200191610edb565b820191906000526020600020905b815481529060010190602001808311610ebe57829003601f168201915b505050505090806001018054600181600116156101000203166002900480601f016020809104026020016040519081016040528092919081815260200182805460018160011615610100020316600290048015610f795780601f10610f4e57610100808354040283529160200191610f79565b820191906000526020600020905b815481529060010190602001808311610f5c57829003601f168201915b505050505090806002018054600181600116156101000203166002900480601f0160208091040260200160405190810160405280929190818152602001828054600181600116156101000203166002900480156110175780601f10610fec57610100808354040283529160200191611017565b820191906000526020600020905b815481529060010190602001808311610ffa57829003601f168201915b505050505090806003018054600181600116156101000203166002900480601f0160208091040260200160405190810160405280929190818152602001828054600181600116156101000203166002900480156110b55780601f1061108a576101008083540402835291602001916110b5565b820191906000526020600020905b81548152906001019060200180831161109857829003601f168201915b505050505090806004018054600181600116156101000203166002900480601f0160208091040260200160405190810160405280929190818152602001828054600181600116156101000203166002900480156111535780601f1061112857610100808354040283529160200191611153565b820191906000526020600020905b81548152906001019060200180831161113657829003601f168201915b5050505050908060050160009054906101000a900473ffffffffffffffffffffffffffffffffffffffff1690806006018054600181600116156101000203166002900480601f0160208091040260200160405190810160405280929190818152602001828054600181600116156101000203166002900480156112175780601f106111ec57610100808354040283529160200191611217565b820191906000526020600020905b8154815290600101906020018083116111fa57829003601f168201915b5050505050908060070160009054906101000a900473ffffffffffffffffffffffffffffffffffffffff1690806008015490806009015490508a565b600073__ConvertLib____________________________6396e4ee3d611278846118f0565b60026040518363ffffffff167c01000000000000000000000000000000000000000000000000000000000281526004016112b3929190612d69565b60206040518083038186803b15156112ca57600080fd5b5af415156112d757600080fd5b505050604051805190509050919050565b6112f06124b2565b6006600081548110151561130057fe5b90600052602060002090600a02016006018054600181600116156101000203166002900480601f0160208091040260200160405190810160405280929190818152602001828054600181600116156101000203166002900480156113a55780601f1061137a576101008083540402835291602001916113a5565b820191906000526020600020905b81548152906001019060200180831161138857829003601f168201915b5050505050905090565b6113b76124b2565b61142b6040805190810160405280600281526020017f61610000000000000000000000000000000000000000000000000000000000008152506040805190810160405280600281526020017f6262000000000000000000000000000000000000000000000000000000000000815250612303565b905090565b6000809054906101000a900473ffffffffffffffffffffffffffffffffffffffff1681565b60008060008373ffffffffffffffffffffffffffffffffffffffff161415151561147e57600080fd5b600090505b600780549050811015611513578273ffffffffffffffffffffffffffffffffffffffff166007828154811015156114b657fe5b906000526020600020900160009054906101000a900473ffffffffffffffffffffffffffffffffffffffff1673ffffffffffffffffffffffffffffffffffffffff16141561150657809150611519565b8080600101915050611483565b60025491505b50919050565b600081600560003373ffffffffffffffffffffffffffffffffffffffff1673ffffffffffffffffffffffffffffffffffffffff1681526020019081526020016000205410156115715760009050611675565b81600560003373ffffffffffffffffffffffffffffffffffffffff1673ffffffffffffffffffffffffffffffffffffffff1681526020019081526020016000206000828254039250508190555081600560008573ffffffffffffffffffffffffffffffffffffffff1673ffffffffffffffffffffffffffffffffffffffff168152602001908152602001600020600082825401925050819055508273ffffffffffffffffffffffffffffffffffffffff163373ffffffffffffffffffffffffffffffffffffffff167fddf252ad1be2c89b69c2b068fc378daa952ba7f163c4a11628f55a4df523b3ef846040516116689190612d25565b60405180910390a3600190505b92915050565b6116836124b2565b600061168f8484611a8e565b90506002548114156116d8576040805190810160405280600981526020017fe4b88de5ad98e59ca800000000000000000000000000000000000000000000008152509150611794565b6006818154811015156116e757fe5b90600052602060002090600a02016003018054600181600116156101000203166002900480601f01602080910402602001604051908101604052809291908181526020018280546001816001161561010002031660029004801561178c5780601f106117615761010080835404028352916020019161178c565b820191906000526020600020905b81548152906001019060200180831161176f57829003601f168201915b505050505091505b5092915050565b6000809054906101000a900473ffffffffffffffffffffffffffffffffffffffff1673ffffffffffffffffffffffffffffffffffffffff163373ffffffffffffffffffffffffffffffffffffffff161415156117f657600080fd5b600073ffffffffffffffffffffffffffffffffffffffff168173ffffffffffffffffffffffffffffffffffffffff161415151561183257600080fd5b806000806101000a81548173ffffffffffffffffffffffffffffffffffffffff021916908373ffffffffffffffffffffffffffffffffffffffff1602179055508073ffffffffffffffffffffffffffffffffffffffff166000809054906101000a900473ffffffffffffffffffffffffffffffffffffffff1673ffffffffffffffffffffffffffffffffffffffff167f8be0079c531659141344cd1fd0a4f28419497f9722a3daafe3b4186f6b6457e060405160405180910390a350565b6000600560008373ffffffffffffffffffffffffffffffffffffffff1673ffffffffffffffffffffffffffffffffffffffff168152602001908152602001600020549050919050565b600080600061194784611455565b915060025482141515611a84576001820190505b600780549050811015611a0b5760078181548110151561197757fe5b906000526020600020900160009054906101000a900473ffffffffffffffffffffffffffffffffffffffff166007600183038154811015156119b557fe5b906000526020600020900160006101000a81548173ffffffffffffffffffffffffffffffffffffffff021916908373ffffffffffffffffffffffffffffffffffffffff160217905550808060010191505061195b565b60006007600160078054905003815481101515611a2457fe5b906000526020600020900160006101000a81548173ffffffffffffffffffffffffffffffffffffffff021916908373ffffffffffffffffffffffffffffffffffffffff1602179055506007805480919060019003611a8291906125b8565b505b8192505050919050565b6000611a986124c6565b6000611aa2611ccc565b9150600090505b8151811015611ca857846040518082805190602001908083835b602083101515611ae85780518252602082019150602081019050602083039250611ac3565b6001836020036101000a0380198251168184511680821785525050505050509050019150506040518091039020600019168282815181101515611b2757fe5b90602001906020020151602001516040518082805190602001908083835b602083101515611b6a5780518252602082019150602081019050602083039250611b45565b6001836020036101000a038019825116818451168082178552505050505050905001915050604051809103902060001916148015611c8e5750836040518082805190602001908083835b602083101515611bd95780518252602082019150602081019050602083039250611bb4565b6001836020036101000a0380198251168184511680821785525050505050509050019150506040518091039020600019168282815181101515611c1857fe5b90602001906020020151604001516040518082805190602001908083835b602083101515611c5b5780518252602082019150602081019050602083039250611c36565b6001836020036101000a038019825116818451168082178552505050505050905001915050604051809103902060001916145b15611c9b57809250611cae565b8080600101915050611aa9565b60025492505b505092915050565b600354420163ffffffff16816009018190555050565b611cd46124c6565b6006805480602002602001604051908101604052809291908181526020016000905b828210156121b657838290600052602060002090600a02016101406040519081016040529081600082018054600181600116156101000203166002900480601f016020809104026020016040519081016040528092919081815260200182805460018160011615610100020316600290048015611db45780601f10611d8957610100808354040283529160200191611db4565b820191906000526020600020905b815481529060010190602001808311611d9757829003601f168201915b50505050508152602001600182018054600181600116156101000203166002900480601f016020809104026020016040519081016040528092919081815260200182805460018160011615610100020316600290048015611e565780601f10611e2b57610100808354040283529160200191611e56565b820191906000526020600020905b815481529060010190602001808311611e3957829003601f168201915b50505050508152602001600282018054600181600116156101000203166002900480601f016020809104026020016040519081016040528092919081815260200182805460018160011615610100020316600290048015611ef85780601f10611ecd57610100808354040283529160200191611ef8565b820191906000526020600020905b815481529060010190602001808311611edb57829003601f168201915b50505050508152602001600382018054600181600116156101000203166002900480601f016020809104026020016040519081016040528092919081815260200182805460018160011615610100020316600290048015611f9a5780601f10611f6f57610100808354040283529160200191611f9a565b820191906000526020600020905b815481529060010190602001808311611f7d57829003601f168201915b50505050508152602001600482018054600181600116156101000203166002900480601f01602080910402602001604051908101604052809291908181526020018280546001816001161561010002031660029004801561203c5780601f106120115761010080835404028352916020019161203c565b820191906000526020600020905b81548152906001019060200180831161201f57829003601f168201915b505050505081526020016005820160009054906101000a900473ffffffffffffffffffffffffffffffffffffffff1673ffffffffffffffffffffffffffffffffffffffff1673ffffffffffffffffffffffffffffffffffffffff168152602001600682018054600181600116156101000203166002900480601f0160208091040260200160405190810160405280929190818152602001828054600181600116156101000203166002900480156121345780601f1061210957610100808354040283529160200191612134565b820191906000526020600020905b81548152906001019060200180831161211757829003601f168201915b505050505081526020016007820160009054906101000a900473ffffffffffffffffffffffffffffffffffffffff1673ffffffffffffffffffffffffffffffffffffffff1673ffffffffffffffffffffffffffffffffffffffff1681526020016008820154815260200160098201548152505081526020019060010190611cf6565b50505050905090565b600080825184511415156121d657600091506122fc565b600090505b83518110156122f75782818151811015156121f257fe5b9060200101517f010000000000000000000000000000000000000000000000000000000000000090047f0100000000000000000000000000000000000000000000000000000000000000027effffffffffffffffffffffffffffffffffffffffffffffffffffffffffffff1916848281518110151561226d57fe5b9060200101517f010000000000000000000000000000000000000000000000000000000000000090047f0100000000000000000000000000000000000000000000000000000000000000027effffffffffffffffffffffffffffffffffffffffffffffffffffffffffffff19161415156122ea57600091506122fc565b80806001019150506121db565b600191505b5092915050565b61230b6124b2565b6123136125e4565b60008084518651016040518059106123285750595b9080825280601f01601f19166020018201604052509250600091505b85518210156123f157858281518110151561235b57fe5b9060200101517f010000000000000000000000000000000000000000000000000000000000000090047f01000000000000000000000000000000000000000000000000000000000000000283838151811015156123b457fe5b9060200101907effffffffffffffffffffffffffffffffffffffffffffffffffffffffffffff1916908160001a9053508180600101925050612344565b600090505b84518110156124a657848181518110151561240d57fe5b9060200101517f010000000000000000000000000000000000000000000000000000000000000090047f010000000000000000000000000000000000000000000000000000000000000002838288510181518110151561246957fe5b9060200101907effffffffffffffffffffffffffffffffffffffffffffffffffffffffffffff1916908160001a90535080806001019150506123f6565b82935050505092915050565b602060405190810160405280600081525090565b602060405190810160405280600081525090565b8154818355818115116125015781836000526020600020918201910161250091906125f8565b5b505050565b81548183558181151161253357600a0281600a028360005260206000209182019101612532919061261d565b5b505050565b828054600181600116156101000203166002900490600052602060002090601f016020900481019282601f1061257957805160ff19168380011785556125a7565b828001600101855582156125a7579182015b828111156125a657825182559160200191906001019061258b565b5b5090506125b491906125f8565b5090565b8154818355818115116125df578183600052602060002091820191016125de91906125f8565b5b505050565b602060405190810160405280600081525090565b61261a91905b808211156126165760008160009055506001016125fe565b5090565b90565b6126f791905b808211156126f3576000808201600061263c91906126fa565b60018201600061264c91906126fa565b60028201600061265c91906126fa565b60038201600061266c91906126fa565b60048201600061267c91906126fa565b6005820160006101000a81549073ffffffffffffffffffffffffffffffffffffffff02191690556006820160006126b391906126fa565b6007820160006101000a81549073ffffffffffffffffffffffffffffffffffffffff02191690556008820160009055600982016000905550600a01612623565b5090565b90565b50805460018160011615610100020316600290046000825580601f10612720575061273f565b601f01602090049060005260206000209081019061273e91906125f8565b5b50565b600061274e8235612e47565b905092915050565b600082601f830112151561276957600080fd5b813561277c61277782612dbf565b612d92565b9150808252602083016020830185838301111561279857600080fd5b6127a3838284612e83565b50505092915050565b60006127b88235612e67565b905092915050565b6000602082840312156127d257600080fd5b60006127e084828501612742565b91505092915050565b600080604083850312156127fc57600080fd5b600061280a85828601612742565b925050602061281b858286016127ac565b9150509250929050565b6000806040838503121561283857600080fd5b600083013567ffffffffffffffff81111561285257600080fd5b61285e85828601612756565b925050602083013567ffffffffffffffff81111561287b57600080fd5b61288785828601612756565b9150509250929050565b600080600080600080600080610100898b0312156128ae57600080fd5b600089013567ffffffffffffffff8111156128c857600080fd5b6128d48b828c01612756565b985050602089013567ffffffffffffffff8111156128f157600080fd5b6128fd8b828c01612756565b975050604089013567ffffffffffffffff81111561291a57600080fd5b6129268b828c01612756565b965050606089013567ffffffffffffffff81111561294357600080fd5b61294f8b828c01612756565b955050608089013567ffffffffffffffff81111561296c57600080fd5b6129788b828c01612756565b94505060a06129898b828c01612742565b93505060c089013567ffffffffffffffff8111156129a657600080fd5b6129b28b828c01612756565b92505060e06129c38b828c01612742565b9150509295985092959890939650565b6000806000606084860312156129e857600080fd5b600084013567ffffffffffffffff811115612a0257600080fd5b612a0e86828701612756565b935050602084013567ffffffffffffffff811115612a2b57600080fd5b612a3786828701612756565b9250506040612a48868287016127ac565b9150509250925092565b600060208284031215612a6457600080fd5b6000612a72848285016127ac565b91505092915050565b612a8481612e01565b82525050565b612a9381612e21565b82525050565b612aa281612e71565b82525050565b6000612ab382612df6565b808452612ac7816020860160208601612e92565b612ad081612ec5565b602085010191505092915050565b6000612ae982612deb565b808452612afd816020860160208601612e92565b612b0681612ec5565b602085010191505092915050565b612b1d81612e2d565b82525050565b612b2c81612e2d565b82525050565b612b3b81612e37565b82525050565b6000602082019050612b566000830184612a7b565b92915050565b6000602082019050612b716000830184612a8a565b92915050565b60006020820190508181036000830152612b918184612aa8565b905092915050565b6000610140820190508181036000830152612bb4818d612aa8565b90508181036020830152612bc8818c612aa8565b90508181036040830152612bdc818b612aa8565b90508181036060830152612bf0818a612aa8565b90508181036080830152612c048189612aa8565b9050612c1360a0830188612a7b565b81810360c0830152612c258187612aa8565b9050612c3460e0830186612a7b565b612c42610100830185612b32565b612c50610120830184612b32565b9b9a5050505050505050505050565b6000610140820190508181036000830152612c7a818d612ade565b90508181036020830152612c8e818c612ade565b90508181036040830152612ca2818b612ade565b90508181036060830152612cb6818a612ade565b90508181036080830152612cca8189612ade565b9050612cd960a0830188612a7b565b81810360c0830152612ceb8187612ade565b9050612cfa60e0830186612a7b565b612d08610100830185612b14565b612d16610120830184612b14565b9b9a5050505050505050505050565b6000602082019050612d3a6000830184612b14565b92915050565b6000604082019050612d556000830185612b14565b612d626020830184612a8a565b9392505050565b6000604082019050612d7e6000830185612b23565b612d8b6020830184612a99565b9392505050565b6000604051905081810181811067ffffffffffffffff82111715612db557600080fd5b8060405250919050565b600067ffffffffffffffff821115612dd657600080fd5b601f19601f8301169050602081019050919050565b600081519050919050565b600081519050919050565b600073ffffffffffffffffffffffffffffffffffffffff82169050919050565b60008115159050919050565b6000819050919050565b600063ffffffff82169050919050565b600073ffffffffffffffffffffffffffffffffffffffff82169050919050565b6000819050919050565b6000612e7c82612e2d565b9050919050565b82818337600083830152505050565b60005b83811015612eb0578082015181840152602081019050612e95565b83811115612ebf576000848401525b50505050565b6000601f19601f83011690509190505600a265627a7a72305820cd3038bc94dcb4d4242fbae7d00504a4c9fa09f857375fc295c6ccb5c4ae7e6b6c6578706572696d656e74616cf50037",
  "source": "pragma solidity ^0.4.17;\npragma experimental ABIEncoderV2;\n\nimport \"./ConvertLib.sol\";\nimport \"./ownable.sol\";\nimport \"./safemath.sol\";\n\ncontract MetaCoin is Ownable{\n\n\t //using SafeMath for uint256;\n\taddress ownerOfContract = 0x627306090abab3a6e1400e9345bc60c78a8bef57;   //\n\tuint nullIndex = uint(-1);\n\tuint cooldownTime = 1 minutes;  //CA\n\t// \n\tbool locked;\n    modifier noReentrancy() {\n        if(locked) throw;\n        locked = true;\n        _;\n        locked = false;\n    }\n\n\t//-------------------------------------------------------------------------------\n\t\tmapping (address => uint) balances;\n\n\t\tevent Transfer(address indexed _from, address indexed _to, uint256 _value);\n\n\t\tfunction MetaCoin() public {\n\n\t\t\tbalances[tx.origin] = 100000;\n\t\t\tCAs.push(ownerOfContract);\n\t\t}\n\n\t\tfunction sendCoin(address receiver, uint amount) public returns(bool sufficient) {\n\t\tif (balances[msg.sender] < amount) return false;\n\t\tbalances[msg.sender] -= amount;\n\t\tbalances[receiver] += amount;\n\t\tTransfer(msg.sender, receiver, amount);\n\t\treturn true;\n\t}\n\n\t\tfunction getBalanceInEth(address addr) public view returns(uint){\n\t\t\treturn ConvertLib.convert(getBalance(addr),2);\n\t\t}\n\n\t\tfunction getBalance(address addr) public view returns(uint) {\n\t\t\treturn balances[addr];\n\t\t}\n\n\t\tfunction getCertUserFirst() public view returns(string){\n\t\t\treturn certusers[0].CA;\n\t\t}\n\n\n\t//-------------------------------------------------------------------------------\n\tstruct CertUser {\n\t\t\t\tstring username;   // \n\t\t\t\tstring identityId;  //\n\t\t\t\tstring certnumber; //\n\t\t\t\tstring orgname;  //\n\t\t\t\tstring hashstr;   //\n\t\t\t\taddress useraddress; // \n\t\t\t\tstring CA;  //   \n\t\t\t\taddress CAAddress;\n\t\t\t\tuint userstate; // 0   1     2\n\t\t\t\tuint readyTime;\n\t\t}\n\t\tuint constant maxNum = 10;\n\t\tCertUser[] public certusers;    //     \n\n\t\t//mapping (string => address) mapToCA; //  => \n\t\t//mapping (address => CertUser[]) mapToCertusers;   // \n\t\t//mapping (string  => address) mapToCAByCertnumber;\n\n\t\t//function MetaCoin() public {\n\t\t//\ttransferOwnership(ownerOfContract);\n\t\t//}\n\n\n\t\t  //CACA       \n\t\t  // CA \n\t\t  address[] public CAs;\n\t\t  function addCA(address CAAddress) public payable returns (uint CAIndex, bool error){\n\t\t\t require(msg.sender == ownerOfContract);\n\t\t\t if(getCAByAddress(CAAddress) != nullIndex) {\n\t\t\t\t return (nullIndex, false);\n\t\t\t }\n\t\t\t return (CAs.push(CAAddress),true);\n\t\t  }\n\n\t\t  function getCAByAddress(address CAAddress) public view returns (uint CAIndex) {\n\t\t\t  require(CAAddress != 0x0);\n\t\t\t  for(uint i = 0; i < CAs.length; i++ ) {\n\t\t\t\t if(CAs[i] == CAAddress) {\n\t\t\t\t\t return i;\n\t\t\t\t }\n\t\t\t }\n\t\t\t return nullIndex;\n\t\t }\n\t\t function deleteCA(address CAAddress) public payable returns (uint CAIndex) {\n\t\t\tuint index = getCAByAddress(CAAddress);\n\t\t\tif(index != nullIndex) {\n\t\t\t\tfor(uint i = index + 1; i < CAs.length; i++) {\n\t\t\t\t\tCAs[i - 1] = CAs[i];\n\t\t\t\t}\n\t\t\t\tCAs[CAs.length - 1] = 0x0;\n\t\t\t\tCAs.length--;\n\t\t\t}\n\t\t\treturn index;   // CA\n\t\t}\n\n\n\n\n\t\t// \n\t\tfunction createCertUser(string _username, string _identityId, string _certnumber, string _orgname, string _hashstr\n\t\t, address _useraddress, string _CA, address _CAAddress) public payable returns(string)  {\n\t\t\trequire(_useraddress != 0x0);\n\t\t\trequire(_CAAddress != 0x0);\n\t\t\tuint i =1;\n\t\t\tif(getCAByAddress(_CAAddress) == nullIndex) {\n\t\t\t\treturn \"please add to CA to white list first.\";\n\t\t\t}\n\t\t\tuint index = _getUniqueCertUserPos(_identityId, _certnumber);\n\t\t\tif(index != nullIndex) {\n\t\t\t\treturn  \"add false. the CertUser exists\";\n\t\t\t}\n\t\t\tuint certUserIndex = certusers.push(CertUser({username:\"aaa\", identityId:_identityId, certnumber:_certnumber, orgname:_orgname\n\t\t\t, hashstr:_hashstr,useraddress: _useraddress, CA:_CA, CAAddress:_CAAddress, userstate:0, readyTime:now}));\n\t\t\treturn \"add success\";\n\t\t}\n\n\t\t//\n\t\tfunction _getCertuses() private view returns (CertUser[]) {\n\t\t\treturn certusers;\n\t\t}\n\n\t\t//\n\t\tfunction _getUniqueCertUserPos(string identityId, string certnumber) private view returns (uint) {\n\t\t\tCertUser[] memory allCertusers = _getCertuses();\n\t\t\tfor(uint i = 0; i < allCertusers.length; i++) {\n\t\t\t\tif(keccak256(allCertusers[i].identityId) == keccak256(identityId)\n\t\t\t\t\t&& keccak256(allCertusers[i].certnumber) == keccak256(certnumber)) {   //TO DO \n\t\t\t\t\treturn i;\n\t\t\t\t}\n\t\t\t}\n\t\t\treturn nullIndex;\n\t\t}\n\n\n\t\t// \n\t\tfunction getAllCertUsers() public view returns (string) {\n//\t\t\tCertUser[] memory certUsers = _getCertuses();\n//\t\t\tstring[] memory rtn;\n//\t\t\tuint num = 0;\n//\t\t\tfor(uint i = 0; i < certUsers.length; i++) {\n//\t\t\t\tif(certUsers[i].useraddress == msg.sender) {\n//\t\t\t\t\t//rtn[num++] = certUsers[i].certnumber + \":\" + certUsers[i].orgname + \":\" + certUsers[i].userstate + \":\" + certUsers[i].identityId;\n//\t\t\t\t\t//,\n//\t\t\t\t\trtn[num++] = _stringMerge(_stringMerge(certUsers[i].certnumber,certUsers[i].orgname),certUsers[i].identityId);\n//\t\t\t\t}\n//\t\t\t}\n\t\t\treturn _stringMerge(\"aa\",\"bb\");\n\t\t}\n\n\t\t// sha3(s1) == sha3(s2) sha3(s1,s2) == sha3(s1,s2,s3,s4)\n\t\tfunction _stringEquals(string s1, string s2) private pure returns (bool istrue) {\n\t\t\tif(bytes(s1).length != bytes(s2).length) return false;\n\t\t\tfor(uint i = 0; i < bytes(s1).length; i++) {\n\t\t\t\tif(bytes(s1)[i] != bytes(s2)[i])\n\t\t\t\t\treturn false;\n\t\t\t}\n\t\t\treturn true;\n\t\t}\n\t\t// storagebytesstringpush()\n\t\t// 123  uint8  memorystorate\n\t\tfunction _stringMerge(string s1, string s2) private pure returns (string) {\n\t\t\t//byte8 fixedLengthBytesArray = 0x1122334455667788;\n\t\t\t//if(bytes(s1).length == 0) return s2;    == \n\t\t\t//if(bytes[s2].length == 0) return s1;\n\t\t\tbytes memory rtn = new bytes(bytes(s1).length + bytes(s2).length);\n\t\t\tfor(uint i = 0; i < bytes(s1).length; i++) {\n\t\t\t\trtn[i] = bytes(s1)[i];\n\t\t\t}\n\t\t\tfor(uint j = 0; j < bytes(s2).length; j++) {\n\t\t\t\trtn[bytes(s1).length + j] = bytes(s2)[j];\n\t\t\t}\n\t\t\treturn string(rtn);\n\t\t}\n\n\t\tfunction verifyCertUser(string identityId, string certnumber) public view returns (bool istrue) {\n\t\t\tfor(uint i = 0; i < certusers.length; i++) {\n\t\t\t\tif(_stringEquals(certusers[i].identityId,identityId) && _stringEquals(certusers[i].certnumber,certnumber)\n\t\t\t\t&& certusers[i].userstate == 0)\n\t\t\t\t\treturn true;\n\t\t\t}\n\n\t\t\treturn false;\n\t\t}\n\t\t//  \n\t\tfunction getFirstCertUser(string identityId, string certnumber) public view returns\n\t\t(string username, string identityId1, string certnumber1, string orgname, string hashstr\n\t\t, address useraddress1, string CA, address CAAddress,uint32 userstate, uint32 readyTime) {\n\t\t\t//indexDeclarationError: Identifier already declared\n\n\t\t\tCertUser[] memory allCertusers = _getCertuses();\n\t\t\tuint index = _getUniqueCertUserPos(identityId, certnumber);\n\t\t\trequire(index != nullIndex);\n\t\t\trequire(allCertusers[index].useraddress == msg.sender || allCertusers[index].CAAddress == msg.sender);\n\t\t\treturn (allCertusers[index].username, allCertusers[index].identityId, allCertusers[index].certnumber, allCertusers[index].orgname\n\t\t\t\t, allCertusers[index].hashstr, allCertusers[index].useraddress, allCertusers[index].CA, allCertusers[index].CAAddress\n\t\t\t\t, uint32(allCertusers[index].userstate), uint32(allCertusers[index].readyTime));\n\n\t\t}\n\t\t//tuplesolidity struct\n\t\t/*function getFirstCertUser1(string identityId, string certnumber) public view returns (CertUser) {\n\t\t\tCertUser[] memory allCertusers = _getCertuses();\n\t\t\tuint index = _getUniqueCertUserPos(identityId, certnumber);\n\t\t\trequire(index != nullIndex);\n\t\t\trequire(allCertusers[index].useraddress == msg.sender || allCertusers[index].CAAddress == msg.sender);\n\t\t\treturn allCertusers[index];\n\n\t\t}*/\n\n\t\tfunction getCertUserOrgname(string identityId, string certnumber) public view returns (string) {\n\t\t\tuint index = _getUniqueCertUserPos(identityId, certnumber);\n\t\t\tif(index == nullIndex) {\n\t\t\t\treturn \"\";\n\t\t\t}\n\t\t\treturn certusers[index].orgname;\n\t\t}\n\n\t\t//\n\t\tfunction changeCertUserState(string identityId, string certnumber, uint state) public payable returns (bool isChanged) {\n\t\t\tCertUser storage certUser = certusers[_getUniqueCertUserPos(identityId, certnumber)];\n\t\t\trequire(certUser.userstate != state);\n\t\t\tif(certUser.userstate == 2 ) {\n\t\t\t\trequire(certUser.CAAddress == msg.sender);\n\t\t\t\tcertUser.userstate = state;\n\t\t\t} else {\n\t\t\t\t//require(_isReady(certUser));   //\n\t\t\t\tcertUser.userstate = state;\n\t\t\t}\n\n\t\t\t_triggerCooldown(certUser);\n\t\t}\n\n\t\t function _triggerCooldown(CertUser storage certUser) internal {\n\t\t\tcertUser.readyTime = uint32(now + cooldownTime);\n\t\t  }\n\n\t\t  function _isReady(CertUser storage certUser) internal view returns (bool) {\n\t\t\t  return (certUser.readyTime <= now);\n\t\t  }\n\n}\n",
  "sourcePath": "D:\\blockchaindev\\Cert\\contracts\\MetaCoin.sol",
  "compiler": {
    "name": "solc",
    "version": "0.4.21+commit.dfe3193c.Emscripten.clang"
  },
  "schemaVersion": "2.0.0",
  "updatedAt": "2018-06-09T03:11:34.285Z"
}