{
  "contractName": "MetaCoin",
  "abi": [
    {
      "constant": true,
      "inputs": [
        {
          "name": "",
          "type": "uint256"
        }
      ],
      "name": "CAs",
      "outputs": [
        {
          "name": "",
          "type": "address"
        }
      ],
      "payable": false,
      "stateMutability": "view",
      "type": "function"
    },
    {
      "constant": true,
      "inputs": [
        {
          "name": "",
          "type": "uint256"
        }
      ],
      "name": "certusers",
      "outputs": [
        {
          "name": "username",
          "type": "string"
        },
        {
          "name": "identityId",
          "type": "string"
        },
        {
          "name": "certnumber",
          "type": "string"
        },
        {
          "name": "orgname",
          "type": "string"
        },
        {
          "name": "hashstr",
          "type": "string"
        },
        {
          "name": "useraddress",
          "type": "address"
        },
        {
          "name": "CA",
          "type": "string"
        },
        {
          "name": "CAAddress",
          "type": "address"
        },
        {
          "name": "userstate",
          "type": "uint256"
        },
        {
          "name": "readyTime",
          "type": "uint256"
        }
      ],
      "payable": false,
      "stateMutability": "view",
      "type": "function"
    },
    {
      "constant": true,
      "inputs": [],
      "name": "owner",
      "outputs": [
        {
          "name": "",
          "type": "address"
        }
      ],
      "payable": false,
      "stateMutability": "view",
      "type": "function"
    },
    {
      "constant": false,
      "inputs": [
        {
          "name": "newOwner",
          "type": "address"
        }
      ],
      "name": "transferOwnership",
      "outputs": [],
      "payable": false,
      "stateMutability": "nonpayable",
      "type": "function"
    },
    {
      "inputs": [],
      "payable": false,
      "stateMutability": "nonpayable",
      "type": "constructor"
    },
    {
      "anonymous": false,
      "inputs": [
        {
          "indexed": true,
          "name": "_from",
          "type": "address"
        },
        {
          "indexed": true,
          "name": "_to",
          "type": "address"
        },
        {
          "indexed": false,
          "name": "_value",
          "type": "uint256"
        }
      ],
      "name": "Transfer",
      "type": "event"
    },
    {
      "anonymous": false,
      "inputs": [
        {
          "indexed": true,
          "name": "previousOwner",
          "type": "address"
        },
        {
          "indexed": true,
          "name": "newOwner",
          "type": "address"
        }
      ],
      "name": "OwnershipTransferred",
      "type": "event"
    },
    {
      "constant": false,
      "inputs": [
        {
          "name": "receiver",
          "type": "address"
        },
        {
          "name": "amount",
          "type": "uint256"
        }
      ],
      "name": "sendCoin",
      "outputs": [
        {
          "name": "sufficient",
          "type": "bool"
        }
      ],
      "payable": false,
      "stateMutability": "nonpayable",
      "type": "function"
    },
    {
      "constant": true,
      "inputs": [
        {
          "name": "addr",
          "type": "address"
        }
      ],
      "name": "getBalanceInEth",
      "outputs": [
        {
          "name": "",
          "type": "uint256"
        }
      ],
      "payable": false,
      "stateMutability": "view",
      "type": "function"
    },
    {
      "constant": true,
      "inputs": [
        {
          "name": "addr",
          "type": "address"
        }
      ],
      "name": "getBalance",
      "outputs": [
        {
          "name": "",
          "type": "uint256"
        }
      ],
      "payable": false,
      "stateMutability": "view",
      "type": "function"
    },
    {
      "constant": true,
      "inputs": [],
      "name": "getCertUserFirst",
      "outputs": [
        {
          "name": "",
          "type": "string"
        }
      ],
      "payable": false,
      "stateMutability": "view",
      "type": "function"
    },
    {
      "constant": false,
      "inputs": [
        {
          "name": "CAAddress",
          "type": "address"
        }
      ],
      "name": "addCA",
      "outputs": [
        {
          "name": "CAIndex",
          "type": "uint256"
        },
        {
          "name": "error",
          "type": "bool"
        }
      ],
      "payable": true,
      "stateMutability": "payable",
      "type": "function"
    },
    {
      "constant": true,
      "inputs": [
        {
          "name": "CAAddress",
          "type": "address"
        }
      ],
      "name": "getCAByAddress",
      "outputs": [
        {
          "name": "CAIndex",
          "type": "uint256"
        }
      ],
      "payable": false,
      "stateMutability": "view",
      "type": "function"
    },
    {
      "constant": false,
      "inputs": [
        {
          "name": "CAAddress",
          "type": "address"
        }
      ],
      "name": "deleteCA",
      "outputs": [
        {
          "name": "CAIndex",
          "type": "uint256"
        }
      ],
      "payable": true,
      "stateMutability": "payable",
      "type": "function"
    },
    {
      "constant": false,
      "inputs": [
        {
          "name": "_username",
          "type": "string"
        },
        {
          "name": "_identityId",
          "type": "string"
        },
        {
          "name": "_certnumber",
          "type": "string"
        },
        {
          "name": "_orgname",
          "type": "string"
        },
        {
          "name": "_hashstr",
          "type": "string"
        },
        {
          "name": "_useraddress",
          "type": "address"
        },
        {
          "name": "_CA",
          "type": "string"
        },
        {
          "name": "_CAAddress",
          "type": "address"
        }
      ],
      "name": "createCertUser",
      "outputs": [
        {
          "name": "",
          "type": "string"
        }
      ],
      "payable": true,
      "stateMutability": "payable",
      "type": "function"
    },
    {
      "constant": true,
      "inputs": [],
      "name": "_getCertuses",
      "outputs": [
        {
          "components": [
            {
              "name": "username",
              "type": "string"
            },
            {
              "name": "identityId",
              "type": "string"
            },
            {
              "name": "certnumber",
              "type": "string"
            },
            {
              "name": "orgname",
              "type": "string"
            },
            {
              "name": "hashstr",
              "type": "string"
            },
            {
              "name": "useraddress",
              "type": "address"
            },
            {
              "name": "CA",
              "type": "string"
            },
            {
              "name": "CAAddress",
              "type": "address"
            },
            {
              "name": "userstate",
              "type": "uint256"
            },
            {
              "name": "readyTime",
              "type": "uint256"
            }
          ],
          "name": "",
          "type": "tuple[]"
        }
      ],
      "payable": false,
      "stateMutability": "view",
      "type": "function"
    },
    {
      "constant": true,
      "inputs": [
        {
          "name": "_useraddress",
          "type": "address"
        }
      ],
      "name": "getArrayIndex",
      "outputs": [
        {
          "name": "len",
          "type": "uint256"
        },
        {
          "name": "rtn",
          "type": "uint256[]"
        }
      ],
      "payable": false,
      "stateMutability": "view",
      "type": "function"
    },
    {
      "constant": true,
      "inputs": [],
      "name": "getAllCertUsers",
      "outputs": [
        {
          "name": "",
          "type": "string"
        }
      ],
      "payable": false,
      "stateMutability": "view",
      "type": "function"
    },
    {
      "constant": true,
      "inputs": [
        {
          "name": "identityId",
          "type": "string"
        },
        {
          "name": "certnumber",
          "type": "string"
        }
      ],
      "name": "verifyCertUser",
      "outputs": [
        {
          "name": "istrue",
          "type": "bool"
        }
      ],
      "payable": false,
      "stateMutability": "view",
      "type": "function"
    },
    {
      "constant": true,
      "inputs": [
        {
          "name": "identityId",
          "type": "string"
        },
        {
          "name": "certnumber",
          "type": "string"
        }
      ],
      "name": "getFirstCertUser",
      "outputs": [
        {
          "name": "username",
          "type": "string"
        },
        {
          "name": "identityId1",
          "type": "string"
        },
        {
          "name": "certnumber1",
          "type": "string"
        },
        {
          "name": "orgname",
          "type": "string"
        },
        {
          "name": "hashstr",
          "type": "string"
        },
        {
          "name": "useraddress1",
          "type": "address"
        },
        {
          "name": "CA",
          "type": "string"
        },
        {
          "name": "CAAddress",
          "type": "address"
        },
        {
          "name": "userstate",
          "type": "uint32"
        },
        {
          "name": "readyTime",
          "type": "uint32"
        }
      ],
      "payable": false,
      "stateMutability": "view",
      "type": "function"
    },
    {
      "constant": true,
      "inputs": [
        {
          "name": "certUserAddress",
          "type": "address"
        },
        {
          "name": "index",
          "type": "uint256"
        }
      ],
      "name": "getCertUserByAddressAndIndex",
      "outputs": [
        {
          "name": "username",
          "type": "string"
        },
        {
          "name": "identityId1",
          "type": "string"
        },
        {
          "name": "certnumber1",
          "type": "string"
        },
        {
          "name": "orgname",
          "type": "string"
        },
        {
          "name": "hashstr",
          "type": "string"
        },
        {
          "name": "useraddress1",
          "type": "address"
        },
        {
          "name": "CA",
          "type": "string"
        },
        {
          "name": "CAAddress",
          "type": "address"
        },
        {
          "name": "userstate",
          "type": "uint32"
        },
        {
          "name": "readyTime",
          "type": "uint32"
        }
      ],
      "payable": false,
      "stateMutability": "view",
      "type": "function"
    },
    {
      "constant": true,
      "inputs": [
        {
          "name": "identityId",
          "type": "string"
        },
        {
          "name": "certnumber",
          "type": "string"
        }
      ],
      "name": "getCertUserOrgname",
      "outputs": [
        {
          "name": "",
          "type": "string"
        }
      ],
      "payable": false,
      "stateMutability": "view",
      "type": "function"
    },
    {
      "constant": false,
      "inputs": [
        {
          "name": "identityId",
          "type": "string"
        },
        {
          "name": "certnumber",
          "type": "string"
        },
        {
          "name": "state",
          "type": "uint256"
        }
      ],
      "name": "changeCertUserState",
      "outputs": [
        {
          "name": "isChanged",
          "type": "bool"
        }
      ],
      "payable": true,
      "stateMutability": "payable",
      "type": "function"
    }
  ],
  "bytecode": "0x6080604052736b5344b29e8e7e8e63f61321838f590ff9e7fb95600160006101000a81548173ffffffffffffffffffffffffffffffffffffffff021916908373ffffffffffffffffffffffffffffffffffffffff1602179055506000600260006101000a81548173ffffffffffffffffffffffffffffffffffffffff021916908373ffffffffffffffffffffffffffffffffffffffff1602179055507fffffffffffffffffffffffffffffffffffffffffffffffffffffffffffffffff600355603c6004553480156100d057600080fd5b50336000806101000a81548173ffffffffffffffffffffffffffffffffffffffff021916908373ffffffffffffffffffffffffffffffffffffffff160217905550620186a0600860003273ffffffffffffffffffffffffffffffffffffffff1673ffffffffffffffffffffffffffffffffffffffff168152602001908152602001600020819055506007600160009054906101000a900473ffffffffffffffffffffffffffffffffffffffff1690806001815401808255809150509060018203906000526020600020016000909192909190916101000a81548173ffffffffffffffffffffffffffffffffffffffff021916908373ffffffffffffffffffffffffffffffffffffffff16021790555050600773a0d3353751585e590fc7910be95f01a9f6fdfbbc90806001815401808255809150509060018203906000526020600020016000909192909190916101000a81548173ffffffffffffffffffffffffffffffffffffffff021916908373ffffffffffffffffffffffffffffffffffffffff160217905550506133cc806102696000396000f300608060405260043610610111576000357c0100000000000000000000000000000000000000000000000000000000900463ffffffff168062c0d3f0146101165780630c0edc27146101545780631486e993146101845780631665537c146101ca5780631da64e57146102075780632d5dce67146102385780635f9f0372146102755780637843371c146102a55780637bd703e8146102eb578063840e46601461032857806388e262301461035357806389093a151461037e5780638da5cb5b146103a95780638e2e5646146103d457806390b98a1114610411578063aa38517c1461044e578063eabaebb01461048b578063f2fde38b146104d1578063f8b2cb4f146104fa578063fb80d39a14610537575b600080fd5b34801561012257600080fd5b5061013d600480360361013891908101906129f1565b610567565b60405161014b929190613182565b60405180910390f35b61016e60048036036101699190810190612c04565b610648565b60405161017b9190612f9e565b60405180910390f35b34801561019057600080fd5b506101ab60048036036101a69190810190612a56565b61071a565b6040516101c19a99989796959493929190612fdb565b60405180910390f35b3480156101d657600080fd5b506101f160048036036101ec9190810190612c83565b61094d565b6040516101fe9190612f61565b60405180910390f35b610221600480360361021c91908101906129f1565b61098b565b60405161022f9291906131b2565b60405180910390f35b34801561024457600080fd5b5061025f600480360361025a9190810190612a56565b610a20565b60405161026c9190612f9e565b60405180910390f35b61028f600480360361028a9190810190612ac2565b610c14565b60405161029c9190612fb9565b60405180910390f35b3480156102b157600080fd5b506102cc60048036036102c79190810190612c83565b61106b565b6040516102e29a999897969594939291906130a1565b60405180910390f35b3480156102f757600080fd5b50610312600480360361030d91908101906129f1565b61149e565b60405161031f9190613167565b60405180910390f35b34801561033457600080fd5b5061033d611555565b60405161034a9190612f7c565b60405180910390f35b34801561035f57600080fd5b50610368611a42565b6040516103759190612fb9565b60405180910390f35b34801561038a57600080fd5b50610393611b03565b6040516103a09190612fb9565b60405180910390f35b3480156103b557600080fd5b506103be611b7e565b6040516103cb9190612f61565b60405180910390f35b3480156103e057600080fd5b506103fb60048036036103f691908101906129f1565b611ba3565b6040516104089190613167565b60405180910390f35b34801561041d57600080fd5b5061043860048036036104339190810190612a1a565b611ca3565b6040516104459190612f9e565b60405180910390f35b34801561045a57600080fd5b5061047560048036036104709190810190612a56565b611dff565b6040516104829190612fb9565b60405180910390f35b34801561049757600080fd5b506104b260048036036104ad9190810190612a1a565b611f19565b6040516104c89a99989796959493929190612fdb565b60405180910390f35b3480156104dd57600080fd5b506104f860048036036104f391908101906129f1565b611fce565b005b34801561050657600080fd5b50610521600480360361051c91908101906129f1565b612123565b60405161052e9190613167565b60405180910390f35b610551600480360361054c91908101906129f1565b61216c565b60405161055e9190613167565b60405180910390f35b60006060600660008473ffffffffffffffffffffffffffffffffffffffff1673ffffffffffffffffffffffffffffffffffffffff16815260200190815260200160002080549050600660008573ffffffffffffffffffffffffffffffffffffffff1673ffffffffffffffffffffffffffffffffffffffff1681526020019081526020016000208080548060200260200160405190810160405280929190818152602001828054801561063857602002820191906000526020600020905b815481526020019060010190808311610624575b5050505050905091509150915091565b600080600561065786866122df565b81548110151561066357fe5b90600052602060002090600a020190508281600801541415151561068657600080fd5b6002816008015414156106ff573373ffffffffffffffffffffffffffffffffffffffff168160070160009054906101000a900473ffffffffffffffffffffffffffffffffffffffff1673ffffffffffffffffffffffffffffffffffffffff161415156106f157600080fd5b828160080181905550610709565b8281600801819055505b61071281612501565b509392505050565b606080606080606060006060600080600060606000610737611555565b91506107438e8e6122df565b9050600354811415151561075657600080fd5b3373ffffffffffffffffffffffffffffffffffffffff16828281518110151561077b57fe5b9060200190602002015160a0015173ffffffffffffffffffffffffffffffffffffffff1614806107f157503373ffffffffffffffffffffffffffffffffffffffff1682828151811015156107cb57fe5b9060200190602002015160e0015173ffffffffffffffffffffffffffffffffffffffff16145b15156107fc57600080fd5b818181518110151561080a57fe5b9060200190602002015160000151828281518110151561082657fe5b9060200190602002015160200151838381518110151561084257fe5b9060200190602002015160400151848481518110151561085e57fe5b9060200190602002015160600151858581518110151561087a57fe5b9060200190602002015160800151868681518110151561089657fe5b9060200190602002015160a0015187878151811015156108b257fe5b9060200190602002015160c0015188888151811015156108ce57fe5b9060200190602002015160e0015189898151811015156108ea57fe5b9060200190602002015161010001518a8a81518110151561090757fe5b9060200190602002015161012001518999508898508797508696508595508393509b509b509b509b509b509b509b509b509b509b5050509295989b9194979a5092959850565b60078181548110151561095c57fe5b906000526020600020016000915054906101000a900473ffffffffffffffffffffffffffffffffffffffff1681565b60008060035461099a84611ba3565b1415156109af57600354600091509150610a1b565b60078390806001815401808255809150509060018203906000526020600020016000909192909190916101000a81548173ffffffffffffffffffffffffffffffffffffffff021916908373ffffffffffffffffffffffffffffffffffffffff1602179055506001915091505b915091565b600080600090505b600580549050811015610c0857610af7600582815481101515610a4757fe5b90600052602060002090600a02016001018054600181600116156101000203166002900480601f016020809104026020016040519081016040528092919081815260200182805460018160011615610100020316600290048015610aec5780601f10610ac157610100808354040283529160200191610aec565b820191906000526020600020905b815481529060010190602001808311610acf57829003601f168201915b505050505085612517565b8015610bc15750610bc0600582815481101515610b1057fe5b90600052602060002090600a02016002018054600181600116156101000203166002900480601f016020809104026020016040519081016040528092919081815260200182805460018160011615610100020316600290048015610bb55780601f10610b8a57610100808354040283529160200191610bb5565b820191906000526020600020905b815481529060010190602001808311610b9857829003601f168201915b505050505084612517565b5b8015610bed57506000600582815481101515610bd957fe5b90600052602060002090600a020160080154145b15610bfb5760019150610c0d565b8080600101915050610a28565b600091505b5092915050565b6060600080600260009054906101000a900473ffffffffffffffffffffffffffffffffffffffff1673ffffffffffffffffffffffffffffffffffffffff168673ffffffffffffffffffffffffffffffffffffffff1614151515610c7657600080fd5b600260009054906101000a900473ffffffffffffffffffffffffffffffffffffffff1673ffffffffffffffffffffffffffffffffffffffff168473ffffffffffffffffffffffffffffffffffffffff1614151515610cd357600080fd5b600354610cdf85611ba3565b1415610d4957606060405190810160405280603681526020017f696e76616c696420434120616464726573732c20706c6561736520616464204381526020017f41206164647265737320746f2043417320666972737400000000000000000000815250925061105d565b610d538a8a6122df565b915060035482141515610dc457606060405190810160405280602981526020017f6164642066616c73652c2074686520436572745573657220686173206164646581526020017f64206265666f72652e0000000000000000000000000000000000000000000000815250925061105d565b6005610140604051908101604052808d81526020018c81526020018b81526020018a81526020018981526020018873ffffffffffffffffffffffffffffffffffffffff1681526020018781526020018673ffffffffffffffffffffffffffffffffffffffff16815260200160008152602001428152509080600181540180825580915050906001820390600052602060002090600a0201600090919290919091506000820151816000019080519060200190610e8192919061280e565b506020820151816001019080519060200190610e9e92919061280e565b506040820151816002019080519060200190610ebb92919061280e565b506060820151816003019080519060200190610ed892919061280e565b506080820151816004019080519060200190610ef592919061280e565b5060a08201518160050160006101000a81548173ffffffffffffffffffffffffffffffffffffffff021916908373ffffffffffffffffffffffffffffffffffffffff16021790555060c0820151816006019080519060200190610f5992919061280e565b5060e08201518160070160006101000a81548173ffffffffffffffffffffffffffffffffffffffff021916908373ffffffffffffffffffffffffffffffffffffffff1602179055506101008201518160080155610120820151816009015550509050600660008773ffffffffffffffffffffffffffffffffffffffff1673ffffffffffffffffffffffffffffffffffffffff1681526020019081526020016000208190806001815401808255809150509060018203906000526020600020016000909192909190915055506040805190810160405280600b81526020017f616464207375636365737300000000000000000000000000000000000000000081525092505b505098975050505050505050565b60058181548110151561107a57fe5b90600052602060002090600a0201600091509050806000018054600181600116156101000203166002900480601f0160208091040260200160405190810160405280929190818152602001828054600181600116156101000203166002900480156111265780601f106110fb57610100808354040283529160200191611126565b820191906000526020600020905b81548152906001019060200180831161110957829003601f168201915b505050505090806001018054600181600116156101000203166002900480601f0160208091040260200160405190810160405280929190818152602001828054600181600116156101000203166002900480156111c45780601f10611199576101008083540402835291602001916111c4565b820191906000526020600020905b8154815290600101906020018083116111a757829003601f168201915b505050505090806002018054600181600116156101000203166002900480601f0160208091040260200160405190810160405280929190818152602001828054600181600116156101000203166002900480156112625780601f1061123757610100808354040283529160200191611262565b820191906000526020600020905b81548152906001019060200180831161124557829003601f168201915b505050505090806003018054600181600116156101000203166002900480601f0160208091040260200160405190810160405280929190818152602001828054600181600116156101000203166002900480156113005780601f106112d557610100808354040283529160200191611300565b820191906000526020600020905b8154815290600101906020018083116112e357829003601f168201915b505050505090806004018054600181600116156101000203166002900480601f01602080910402602001604051908101604052809291908181526020018280546001816001161561010002031660029004801561139e5780601f106113735761010080835404028352916020019161139e565b820191906000526020600020905b81548152906001019060200180831161138157829003601f168201915b5050505050908060050160009054906101000a900473ffffffffffffffffffffffffffffffffffffffff1690806006018054600181600116156101000203166002900480601f0160208091040260200160405190810160405280929190818152602001828054600181600116156101000203166002900480156114625780601f1061143757610100808354040283529160200191611462565b820191906000526020600020905b81548152906001019060200180831161144557829003601f168201915b5050505050908060070160009054906101000a900473ffffffffffffffffffffffffffffffffffffffff1690806008015490806009015490508a565b600073__ConvertLib____________________________6396e4ee3d6114c384612123565b60026040518363ffffffff167c01000000000000000000000000000000000000000000000000000000000281526004016114fe9291906131db565b60206040518083038186803b15801561151657600080fd5b505af415801561152a573d6000803e3d6000fd5b505050506040513d601f19601f8201168201806040525061154e9190810190612cac565b9050919050565b60606005805480602002602001604051908101604052809291908181526020016000905b82821015611a3957838290600052602060002090600a02016101406040519081016040529081600082018054600181600116156101000203166002900480601f0160208091040260200160405190810160405280929190818152602001828054600181600116156101000203166002900480156116375780601f1061160c57610100808354040283529160200191611637565b820191906000526020600020905b81548152906001019060200180831161161a57829003601f168201915b50505050508152602001600182018054600181600116156101000203166002900480601f0160208091040260200160405190810160405280929190818152602001828054600181600116156101000203166002900480156116d95780601f106116ae576101008083540402835291602001916116d9565b820191906000526020600020905b8154815290600101906020018083116116bc57829003601f168201915b50505050508152602001600282018054600181600116156101000203166002900480601f01602080910402602001604051908101604052809291908181526020018280546001816001161561010002031660029004801561177b5780601f106117505761010080835404028352916020019161177b565b820191906000526020600020905b81548152906001019060200180831161175e57829003601f168201915b50505050508152602001600382018054600181600116156101000203166002900480601f01602080910402602001604051908101604052809291908181526020018280546001816001161561010002031660029004801561181d5780601f106117f25761010080835404028352916020019161181d565b820191906000526020600020905b81548152906001019060200180831161180057829003601f168201915b50505050508152602001600482018054600181600116156101000203166002900480601f0160208091040260200160405190810160405280929190818152602001828054600181600116156101000203166002900480156118bf5780601f10611894576101008083540402835291602001916118bf565b820191906000526020600020905b8154815290600101906020018083116118a257829003601f168201915b505050505081526020016005820160009054906101000a900473ffffffffffffffffffffffffffffffffffffffff1673ffffffffffffffffffffffffffffffffffffffff1673ffffffffffffffffffffffffffffffffffffffff168152602001600682018054600181600116156101000203166002900480601f0160208091040260200160405190810160405280929190818152602001828054600181600116156101000203166002900480156119b75780601f1061198c576101008083540402835291602001916119b7565b820191906000526020600020905b81548152906001019060200180831161199a57829003601f168201915b505050505081526020016007820160009054906101000a900473ffffffffffffffffffffffffffffffffffffffff1673ffffffffffffffffffffffffffffffffffffffff1673ffffffffffffffffffffffffffffffffffffffff1681526020016008820154815260200160098201548152505081526020019060010190611579565b50505050905090565b606060056000815481101515611a5457fe5b90600052602060002090600a02016006018054600181600116156101000203166002900480601f016020809104026020016040519081016040528092919081815260200182805460018160011615610100020316600290048015611af95780601f10611ace57610100808354040283529160200191611af9565b820191906000526020600020905b815481529060010190602001808311611adc57829003601f168201915b5050505050905090565b6060611b796040805190810160405280600281526020017f61610000000000000000000000000000000000000000000000000000000000008152506040805190810160405280600281526020017f626200000000000000000000000000000000000000000000000000000000000081525061265b565b905090565b6000809054906101000a900473ffffffffffffffffffffffffffffffffffffffff1681565b600080600260009054906101000a900473ffffffffffffffffffffffffffffffffffffffff1673ffffffffffffffffffffffffffffffffffffffff168373ffffffffffffffffffffffffffffffffffffffff1614151515611c0357600080fd5b600090505b600780549050811015611c97578273ffffffffffffffffffffffffffffffffffffffff16600782815481101515611c3b57fe5b9060005260206000200160009054906101000a900473ffffffffffffffffffffffffffffffffffffffff1673ffffffffffffffffffffffffffffffffffffffff161415611c8a57809150611c9d565b8080600101915050611c08565b60035491505b50919050565b600081600860003373ffffffffffffffffffffffffffffffffffffffff1673ffffffffffffffffffffffffffffffffffffffff168152602001908152602001600020541015611cf55760009050611df9565b81600860003373ffffffffffffffffffffffffffffffffffffffff1673ffffffffffffffffffffffffffffffffffffffff1681526020019081526020016000206000828254039250508190555081600860008573ffffffffffffffffffffffffffffffffffffffff1673ffffffffffffffffffffffffffffffffffffffff168152602001908152602001600020600082825401925050819055508273ffffffffffffffffffffffffffffffffffffffff163373ffffffffffffffffffffffffffffffffffffffff167fddf252ad1be2c89b69c2b068fc378daa952ba7f163c4a11628f55a4df523b3ef84604051611dec9190613167565b60405180910390a3600190505b92915050565b60606000611e0d84846122df565b9050600354811415611e56576040805190810160405280600981526020017fe4b88de5ad98e59ca800000000000000000000000000000000000000000000008152509150611f12565b600581815481101515611e6557fe5b90600052602060002090600a02016003018054600181600116156101000203166002900480601f016020809104026020016040519081016040528092919081815260200182805460018160011615610100020316600290048015611f0a5780601f10611edf57610100808354040283529160200191611f0a565b820191906000526020600020905b815481529060010190602001808311611eed57829003601f168201915b505050505091505b5092915050565b6060806060806060600060606000806000611f3261288e565b6003548c14151515611f4357600080fd5b611f4b611555565b8c815181101515611f5857fe5b906020019060200201519050806000015181602001518260400151836060015184608001518560a001518660c001518760e001518861010001518961012001518999508898508797508696508595508393509a509a509a509a509a509a509a509a509a509a50509295989b9194979a5092959850565b6000809054906101000a900473ffffffffffffffffffffffffffffffffffffffff1673ffffffffffffffffffffffffffffffffffffffff163373ffffffffffffffffffffffffffffffffffffffff1614151561202957600080fd5b600073ffffffffffffffffffffffffffffffffffffffff168173ffffffffffffffffffffffffffffffffffffffff161415151561206557600080fd5b806000806101000a81548173ffffffffffffffffffffffffffffffffffffffff021916908373ffffffffffffffffffffffffffffffffffffffff1602179055508073ffffffffffffffffffffffffffffffffffffffff166000809054906101000a900473ffffffffffffffffffffffffffffffffffffffff1673ffffffffffffffffffffffffffffffffffffffff167f8be0079c531659141344cd1fd0a4f28419497f9722a3daafe3b4186f6b6457e060405160405180910390a350565b6000600860008373ffffffffffffffffffffffffffffffffffffffff1673ffffffffffffffffffffffffffffffffffffffff168152602001908152602001600020549050919050565b600080600061217a84611ba3565b9150600354821415156122d5576001820190505b60078054905081101561223c576007818154811015156121aa57fe5b9060005260206000200160009054906101000a900473ffffffffffffffffffffffffffffffffffffffff166007600183038154811015156121e757fe5b9060005260206000200160006101000a81548173ffffffffffffffffffffffffffffffffffffffff021916908373ffffffffffffffffffffffffffffffffffffffff160217905550808060010191505061218e565b600260009054906101000a900473ffffffffffffffffffffffffffffffffffffffff16600760016007805490500381548110151561227657fe5b9060005260206000200160006101000a81548173ffffffffffffffffffffffffffffffffffffffff021916908373ffffffffffffffffffffffffffffffffffffffff16021790555060078054809190600190036122d3919061290e565b505b8192505050919050565b6000606060006122ed611555565b9150600090505b81518110156124f357846040518082805190602001908083835b602083101515612333578051825260208201915060208101905060208303925061230e565b6001836020036101000a038019825116818451168082178552505050505050905001915050604051809103902060001916828281518110151561237257fe5b90602001906020020151602001516040518082805190602001908083835b6020831015156123b55780518252602082019150602081019050602083039250612390565b6001836020036101000a0380198251168184511680821785525050505050509050019150506040518091039020600019161480156124d95750836040518082805190602001908083835b60208310151561242457805182526020820191506020810190506020830392506123ff565b6001836020036101000a038019825116818451168082178552505050505050905001915050604051809103902060001916828281518110151561246357fe5b90602001906020020151604001516040518082805190602001908083835b6020831015156124a65780518252602082019150602081019050602083039250612481565b6001836020036101000a038019825116818451168082178552505050505050905001915050604051809103902060001916145b156124e6578092506124f9565b80806001019150506122f4565b60035492505b505092915050565b600454420163ffffffff16816009018190555050565b6000808251845114151561252e5760009150612654565b600090505b835181101561264f57828181518110151561254a57fe5b9060200101517f010000000000000000000000000000000000000000000000000000000000000090047f0100000000000000000000000000000000000000000000000000000000000000027effffffffffffffffffffffffffffffffffffffffffffffffffffffffffffff191684828151811015156125c557fe5b9060200101517f010000000000000000000000000000000000000000000000000000000000000090047f0100000000000000000000000000000000000000000000000000000000000000027effffffffffffffffffffffffffffffffffffffffffffffffffffffffffffff19161415156126425760009150612654565b8080600101915050612533565b600191505b5092915050565b60608060008084518651016040519080825280601f01601f1916602001820160405280156126985781602001602082028038833980820191505090505b509250600091505b855182101561274d5785828151811015156126b757fe5b9060200101517f010000000000000000000000000000000000000000000000000000000000000090047f010000000000000000000000000000000000000000000000000000000000000002838381518110151561271057fe5b9060200101907effffffffffffffffffffffffffffffffffffffffffffffffffffffffffffff1916908160001a90535081806001019250506126a0565b600090505b845181101561280257848181518110151561276957fe5b9060200101517f010000000000000000000000000000000000000000000000000000000000000090047f01000000000000000000000000000000000000000000000000000000000000000283828851018151811015156127c557fe5b9060200101907effffffffffffffffffffffffffffffffffffffffffffffffffffffffffffff1916908160001a9053508080600101915050612752565b82935050505092915050565b828054600181600116156101000203166002900490600052602060002090601f016020900481019282601f1061284f57805160ff191683800117855561287d565b8280016001018555821561287d579182015b8281111561287c578251825591602001919060010190612861565b5b50905061288a919061293a565b5090565b610140604051908101604052806060815260200160608152602001606081526020016060815260200160608152602001600073ffffffffffffffffffffffffffffffffffffffff16815260200160608152602001600073ffffffffffffffffffffffffffffffffffffffff16815260200160008152602001600081525090565b81548183558181111561293557818360005260206000209182019101612934919061293a565b5b505050565b61295c91905b80821115612958576000816000905550600101612940565b5090565b90565b600061296b8235613303565b905092915050565b600082601f830112151561298657600080fd5b813561299961299482613231565b613204565b915080825260208301602083018583830111156129b557600080fd5b6129c083828461333f565b50505092915050565b60006129d58235613323565b905092915050565b60006129e98251613323565b905092915050565b600060208284031215612a0357600080fd5b6000612a118482850161295f565b91505092915050565b60008060408385031215612a2d57600080fd5b6000612a3b8582860161295f565b9250506020612a4c858286016129c9565b9150509250929050565b60008060408385031215612a6957600080fd5b600083013567ffffffffffffffff811115612a8357600080fd5b612a8f85828601612973565b925050602083013567ffffffffffffffff811115612aac57600080fd5b612ab885828601612973565b9150509250929050565b600080600080600080600080610100898b031215612adf57600080fd5b600089013567ffffffffffffffff811115612af957600080fd5b612b058b828c01612973565b985050602089013567ffffffffffffffff811115612b2257600080fd5b612b2e8b828c01612973565b975050604089013567ffffffffffffffff811115612b4b57600080fd5b612b578b828c01612973565b965050606089013567ffffffffffffffff811115612b7457600080fd5b612b808b828c01612973565b955050608089013567ffffffffffffffff811115612b9d57600080fd5b612ba98b828c01612973565b94505060a0612bba8b828c0161295f565b93505060c089013567ffffffffffffffff811115612bd757600080fd5b612be38b828c01612973565b92505060e0612bf48b828c0161295f565b9150509295985092959890939650565b600080600060608486031215612c1957600080fd5b600084013567ffffffffffffffff811115612c3357600080fd5b612c3f86828701612973565b935050602084013567ffffffffffffffff811115612c5c57600080fd5b612c6886828701612973565b9250506040612c79868287016129c9565b9150509250925092565b600060208284031215612c9557600080fd5b6000612ca3848285016129c9565b91505092915050565b600060208284031215612cbe57600080fd5b6000612ccc848285016129dd565b91505092915050565b612cde816132bd565b82525050565b6000612cef82613277565b80845260208401935083602082028501612d088561325d565b60005b84811015612d41578383038852612d23838351612e37565b9250612d2e826132a3565b9150602088019750600181019050612d0b565b508196508694505050505092915050565b6000612d5d82613282565b808452602084019350612d6f8361326a565b60005b82811015612da157612d85868351612f34565b612d8e826132b0565b9150602086019550600181019050612d72565b50849250505092915050565b612db6816132dd565b82525050565b612dc58161332d565b82525050565b6000612dd682613298565b808452612dea81602086016020860161334e565b612df381613381565b602085010191505092915050565b6000612e0c8261328d565b808452612e2081602086016020860161334e565b612e2981613381565b602085010191505092915050565b6000610140830160008301518482036000860152612e558282612e01565b91505060208301518482036020860152612e6f8282612e01565b91505060408301518482036040860152612e898282612e01565b91505060608301518482036060860152612ea38282612e01565b91505060808301518482036080860152612ebd8282612e01565b91505060a0830151612ed260a0860182612cd5565b5060c083015184820360c0860152612eea8282612e01565b91505060e0830151612eff60e0860182612cd5565b50610100830151612f14610100860182612f34565b50610120830151612f29610120860182612f34565b508091505092915050565b612f3d816132e9565b82525050565b612f4c816132e9565b82525050565b612f5b816132f3565b82525050565b6000602082019050612f766000830184612cd5565b92915050565b60006020820190508181036000830152612f968184612ce4565b905092915050565b6000602082019050612fb36000830184612dad565b92915050565b60006020820190508181036000830152612fd38184612dcb565b905092915050565b6000610140820190508181036000830152612ff6818d612dcb565b9050818103602083015261300a818c612dcb565b9050818103604083015261301e818b612dcb565b90508181036060830152613032818a612dcb565b905081810360808301526130468189612dcb565b905061305560a0830188612cd5565b81810360c08301526130678187612dcb565b905061307660e0830186612cd5565b613084610100830185612f52565b613092610120830184612f52565b9b9a5050505050505050505050565b60006101408201905081810360008301526130bc818d612e01565b905081810360208301526130d0818c612e01565b905081810360408301526130e4818b612e01565b905081810360608301526130f8818a612e01565b9050818103608083015261310c8189612e01565b905061311b60a0830188612cd5565b81810360c083015261312d8187612e01565b905061313c60e0830186612cd5565b61314a610100830185612f34565b613158610120830184612f34565b9b9a5050505050505050505050565b600060208201905061317c6000830184612f34565b92915050565b60006040820190506131976000830185612f34565b81810360208301526131a98184612d52565b90509392505050565b60006040820190506131c76000830185612f34565b6131d46020830184612dad565b9392505050565b60006040820190506131f06000830185612f43565b6131fd6020830184612dbc565b9392505050565b6000604051905081810181811067ffffffffffffffff8211171561322757600080fd5b8060405250919050565b600067ffffffffffffffff82111561324857600080fd5b601f19601f8301169050602081019050919050565b6000602082019050919050565b6000602082019050919050565b600081519050919050565b600081519050919050565b600081519050919050565b600081519050919050565b6000602082019050919050565b6000602082019050919050565b600073ffffffffffffffffffffffffffffffffffffffff82169050919050565b60008115159050919050565b6000819050919050565b600063ffffffff82169050919050565b600073ffffffffffffffffffffffffffffffffffffffff82169050919050565b6000819050919050565b6000613338826132e9565b9050919050565b82818337600083830152505050565b60005b8381101561336c578082015181840152602081019050613351565b8381111561337b576000848401525b50505050565b6000601f19601f83011690509190505600a265627a7a72305820ffbfba469216c658fc515379d6388b134afc67e68ec2d83de7976e543b0761c66c6578706572696d656e74616cf50037",
  "source": "pragma solidity ^0.4.17;\npragma experimental ABIEncoderV2;\n\nimport \"./ConvertLib.sol\";\nimport \"./ownable.sol\";\nimport \"./safemath.sol\";\n\ncontract MetaCoin is Ownable{\n\n\taddress ownerOfContract = 0x6b5344B29E8E7e8e63f61321838f590fF9e7fB95;   //\n\taddress nullAddress = 0x0;  //0\n\tuint nullIndex = uint(-1); //\n\tuint cooldownTime = 1 minutes;  //CA\n\tCertUser[] public certusers;    //     \n\tmapping (address => uint[]) mapToCertUserIndex; // -->\n\taddress[] public CAs;  // CA\n\tmapping (address => uint) balances;\n\tevent Transfer(address indexed _from, address indexed _to, uint256 _value);\n\n\t// ------------------------------------------------------------------------\n\tbool locked;\n    modifier noReentrancy() {\n        if(locked) throw;\n        locked = true;\n        _;\n        locked = false;\n    }\n\t//-------------------------------------------------------------------------------\n\n\t\tfunction MetaCoin() public {\n\t\t\t\n\t\t\tbalances[tx.origin] = 100000;\n\t\t\tCAs.push(ownerOfContract);\n\t\t\tCAs.push(0xa0d3353751585e590fc7910be95f01a9f6fdfbbc);\n\t\t}\n\t\n\t\tfunction sendCoin(address receiver, uint amount) public returns(bool sufficient) {\n\t\tif (balances[msg.sender] < amount) return false;\n\t\tbalances[msg.sender] -= amount;\n\t\tbalances[receiver] += amount;\n\t\tTransfer(msg.sender, receiver, amount);\n\t\treturn true;\n\t}\n\n\t\tfunction getBalanceInEth(address addr) public view returns(uint){\n\t\t\treturn ConvertLib.convert(getBalance(addr),2);\n\t\t}\n\n\t\tfunction getBalance(address addr) public view returns(uint) {\n\t\t\treturn balances[addr];\n\t\t}\n\t\t\n\t\tfunction getCertUserFirst() public view returns(string){\n\t\t\treturn certusers[0].CA;\n\t\t}\n\t\n\n\t//-------------------------------------------------------------------------------\n\tstruct CertUser {\n\t\t\t\tstring username;   // \n\t\t\t\tstring identityId;  //\n\t\t\t\tstring certnumber; //\n\t\t\t\tstring orgname;  //\n\t\t\t\tstring hashstr;   //  \n\t\t\t\taddress useraddress; // \n\t\t\t\tstring CA;  //   \n\t\t\t\taddress CAAddress;\n\t\t\t\tuint userstate; // 0   1     2\n\t\t\t\tuint readyTime;\n\t\t}\n\n\t\t  //CACA       \n\t\t  // CA \n\n\t\t  function addCA(address CAAddress) public payable returns (uint CAIndex, bool error){\n\t\t\t //require(msg.sender == ownerOfContract);\n\t\t\t if(getCAByAddress(CAAddress) != nullIndex) {\n\t\t\t\t return (nullIndex, false);\n\t\t\t }\n\t\t\t return (CAs.push(CAAddress),true);\n\t\t  }\n\t\t  \n\t\t  function getCAByAddress(address CAAddress) public view returns (uint CAIndex) {\n\t\t\t  require(CAAddress != nullAddress);\n\t\t\t  for(uint i = 0; i < CAs.length; i++ ) {\n\t\t\t\t if(CAs[i] == CAAddress) {\n\t\t\t\t\t return i;\n\t\t\t\t }\n\t\t\t }\n\t\t\t return nullIndex;\n\t\t }\n\t\t function deleteCA(address CAAddress) public payable returns (uint CAIndex) {\n\t\t\tuint index = getCAByAddress(CAAddress);\n\t\t\tif(index != nullIndex) {\n\t\t\t\tfor(uint i = index + 1; i < CAs.length; i++) {\n\t\t\t\t\tCAs[i - 1] = CAs[i];\n\t\t\t\t}\n\t\t\t\tCAs[CAs.length - 1] = nullAddress;\n\t\t\t\tCAs.length--;\n\t\t\t}\n\t\t\treturn index;   // CA\n\t\t}\n\t\t \n\n\t\t//  null\n\t\tfunction createCertUser(string _username, string _identityId, string _certnumber, string _orgname, string _hashstr\n\t\t, address _useraddress, string _CA, address _CAAddress) public payable returns(string)  {\n\t\t\trequire(_useraddress != nullAddress);\n\t\t\trequire(_CAAddress != nullAddress);\n\t\t\tif(getCAByAddress(_CAAddress) == nullIndex) {\n\t\t\t\treturn \"invalid CA address, please add CA address to CAs first\";\n\t\t\t}\n\t\t\tuint index = _getUniqueCertUserPos(_identityId, _certnumber);\n\t\t\tif(index != nullIndex) {\n\t\t\t\treturn  \"add false, the CertUser has added before.\";\n\t\t\t} \t\t\t\n\t\t\tuint certUserIndex = certusers.push(CertUser({username:_username, identityId:_identityId, certnumber:_certnumber, orgname:_orgname\n\t\t\t, hashstr:_hashstr,useraddress: _useraddress, CA:_CA, CAAddress:_CAAddress, userstate:0, readyTime:now}));\n\t\t\tmapToCertUserIndex[_useraddress].push(certUserIndex);\n\t\t\treturn \"add success\";\n\t\t}\n\t\n\t\t//\n\t\tfunction _getCertuses() public  view returns (CertUser[]) {\n\t\t\treturn certusers;\n\t\t}\n\n\t\t//\n\t\tfunction _getUniqueCertUserPos(string identityId, string certnumber) private view returns (uint) {\n\t\t\tCertUser[] memory allCertusers = _getCertuses();\n\t\t\tfor(uint i = 0; i < allCertusers.length; i++) {\n\t\t\t\tif(keccak256(allCertusers[i].identityId) == keccak256(identityId)\n\t\t\t\t&& keccak256(allCertusers[i].certnumber) == keccak256(certnumber)) {   //TO DO \n\t\t\t\t\treturn i;\n\t\t\t\t}\n\t\t\t}\n\t\t\treturn nullIndex;\n\t\t}\n\n\t    //\n\t\tfunction getArrayIndex(address _useraddress) public  view returns (uint len, uint[] rtn) {\n\t\t\treturn (mapToCertUserIndex[_useraddress].length, mapToCertUserIndex[_useraddress]);\n\t\t}\n\t\t\n\n\t\t// \n\t\tfunction getAllCertUsers() public view returns (string) {\n//\t\t\tCertUser[] memory certUsers = _getCertuses();\n//\t\t\tstring[] memory rtn;\n//\t\t\tuint num = 0;\n//\t\t\tfor(uint i = 0; i < certUsers.length; i++) {\n//\t\t\t\tif(certUsers[i].useraddress == msg.sender) {\n//\t\t\t\t\t//rtn[num++] = certUsers[i].certnumber + \":\" + certUsers[i].orgname + \":\" + certUsers[i].userstate + \":\" + certUsers[i].identityId;\n//\t\t\t\t\t//,\n//\t\t\t\t\trtn[num++] = _stringMerge(_stringMerge(certUsers[i].certnumber,certUsers[i].orgname),certUsers[i].identityId);\n//\t\t\t\t}\n//\t\t\t}\n\t\t\treturn _stringMerge(\"aa\",\"bb\");\n\t\t}\n\t\t\t\n\t\t// sha3(s1) == sha3(s2) sha3(s1,s2) == sha3(s1,s2,s3,s4)\n\t\tfunction _stringEquals(string s1, string s2) private pure returns (bool istrue) {\n\t\t\tif(bytes(s1).length != bytes(s2).length) return false;\n\t\t\tfor(uint i = 0; i < bytes(s1).length; i++) {\n\t\t\t\tif(bytes(s1)[i] != bytes(s2)[i])\n\t\t\t\t\treturn false;\n\t\t\t}\n\t\t\treturn true;\n\t\t}\n\t\t// storagebytesstringpush()\n\t\t// 123  uint8  memorystorate\n\t\tfunction _stringMerge(string s1, string s2) private pure returns (string) {\n\t\t\t//byte8 fixedLengthBytesArray = 0x1122334455667788;\n\t\t\t//if(bytes(s1).length == 0) return s2;    == \n\t\t\t//if(bytes[s2].length == 0) return s1;\n\t\t\tbytes memory rtn = new bytes(bytes(s1).length + bytes(s2).length);\n\t\t\tfor(uint i = 0; i < bytes(s1).length; i++) {\n\t\t\t\trtn[i] = bytes(s1)[i];\n\t\t\t}\n\t\t\tfor(uint j = 0; j < bytes(s2).length; j++) {\n\t\t\t\trtn[bytes(s1).length + j] = bytes(s2)[j];\n\t\t\t}\n\t\t\treturn string(rtn);\n\t\t}\n\t   \n\t\tfunction verifyCertUser(string identityId, string certnumber) public view returns (bool istrue) {  \n\t\t\tfor(uint i = 0; i < certusers.length; i++) {\n\t\t\t\tif(_stringEquals(certusers[i].identityId,identityId) && _stringEquals(certusers[i].certnumber,certnumber)\n\t\t\t\t&& certusers[i].userstate == 0)\n\t\t\t\t\treturn true;\n\t\t\t}\t\t \t\t\t\t\t\t\t\t\n\t\t\t\n\t\t\treturn false;\n\t\t}\n\t\t//  \n\t\tfunction getFirstCertUser(string identityId, string certnumber) public view returns\n\t\t(string username, string identityId1, string certnumber1, string orgname, string hashstr\n\t\t, address useraddress1, string CA, address CAAddress,uint32 userstate, uint32 readyTime) {  \n\t\t\t//indexDeclarationError: Identifier already declared\n\t\t\n\t\t\tCertUser[] memory allCertusers = _getCertuses();\n\t\t\tuint index = _getUniqueCertUserPos(identityId, certnumber);\n\t\t\trequire(index != nullIndex);\n\t\t\trequire(allCertusers[index].useraddress == msg.sender || allCertusers[index].CAAddress == msg.sender);\n\t\t\treturn (allCertusers[index].username, allCertusers[index].identityId, allCertusers[index].certnumber, allCertusers[index].orgname\n\t\t\t\t, allCertusers[index].hashstr, allCertusers[index].useraddress, allCertusers[index].CA, allCertusers[index].CAAddress\n\t\t\t\t, uint32(allCertusers[index].userstate), uint32(allCertusers[index].readyTime));\n\t\t\t\n\t\t}\n\n\t\tfunction getCertUserByAddressAndIndex(address certUserAddress, uint index) public view returns\n\t\t(string username, string identityId1, string certnumber1, string orgname, string hashstr\n\t\t, address useraddress1, string CA, address CAAddress,uint32 userstate, uint32 readyTime){\n\t\t\trequire(index != nullIndex);\n\t\t\tCertUser memory currentCertUser = _getCertuses()[index];\n\n\t\t\treturn (currentCertUser.username, currentCertUser.identityId, currentCertUser.certnumber, currentCertUser.orgname\n\t\t\t, currentCertUser.hashstr, currentCertUser.useraddress, currentCertUser.CA, currentCertUser.CAAddress\n\t\t\t, uint32(currentCertUser.userstate), uint32(currentCertUser.readyTime));\n\t\t}\n\t\t\n\t\tfunction getCertUserOrgname(string identityId, string certnumber) public view returns (string) {\n\t\t\tuint index = _getUniqueCertUserPos(identityId, certnumber);\n\t\t\tif(index == nullIndex) {\n\t\t\t\treturn \"\";\n\t\t\t}\n\t\t\treturn certusers[index].orgname;\n\t\t}\n\t\t\n\t\t//\n\t\tfunction changeCertUserState(string identityId, string certnumber, uint state) public payable returns (bool isChanged) {\n\t\t\tCertUser storage certUser = certusers[_getUniqueCertUserPos(identityId, certnumber)];\n\t\t\trequire(certUser.userstate != state);\n\t\t\tif(certUser.userstate == 2 ) {\n\t\t\t\trequire(certUser.CAAddress == msg.sender);\n\t\t\t\tcertUser.userstate = state;\n\t\t\t} else {\n\t\t\t\t//require(_isReady(certUser));   //\n\t\t\t\tcertUser.userstate = state;\n\t\t\t}\n\t\t\t\n\t\t\t_triggerCooldown(certUser);\n\t\t}\n\t\t\n\t\t function _triggerCooldown(CertUser storage certUser) internal {\n\t\t\tcertUser.readyTime = uint32(now + cooldownTime);\n\t\t  }\n\n\t\t  function _isReady(CertUser storage certUser) internal view returns (bool) {\n\t\t\t  return (certUser.readyTime <= now);\n\t\t  }\t\n\t\t  \n}\n",
  "sourcePath": "/home/deploy/blockchain/Cert1/Cert6.9/CertChain/contracts/MetaCoin.sol",
  "compiler": {
    "name": "solc",
    "version": "0.4.24+commit.e67f0147.Emscripten.clang"
  },
  "schemaVersion": "2.0.0",
  "updatedAt": "2018-06-12T15:23:55.139Z"
}